{
  "contractName": "Airdrop",
  "abi": [
    {
      "inputs": [],
      "stateMutability": "nonpayable",
      "type": "constructor"
    },
    {
      "anonymous": false,
      "inputs": [
        {
          "indexed": false,
          "internalType": "address",
          "name": "beneficiary",
          "type": "address"
        },
        {
          "indexed": false,
          "internalType": "uint256",
          "name": "amount",
          "type": "uint256"
        }
      ],
      "name": "EtherTransfer",
      "type": "event"
    },
    {
      "anonymous": false,
      "inputs": [
        {
          "indexed": true,
          "internalType": "address",
          "name": "previousOwner",
          "type": "address"
        },
        {
          "indexed": true,
          "internalType": "address",
          "name": "newOwner",
          "type": "address"
        }
      ],
      "name": "OwnershipTransferred",
      "type": "event"
    },
    {
      "inputs": [],
      "name": "owner",
      "outputs": [
        {
          "internalType": "address",
          "name": "",
          "type": "address"
        }
      ],
      "stateMutability": "view",
      "type": "function",
      "constant": true
    },
    {
      "inputs": [],
      "name": "renounceOwnership",
      "outputs": [],
      "stateMutability": "nonpayable",
      "type": "function"
    },
    {
      "inputs": [],
      "name": "tokenAddr",
      "outputs": [
        {
          "internalType": "address",
          "name": "",
          "type": "address"
        }
      ],
      "stateMutability": "view",
      "type": "function",
      "constant": true
    },
    {
      "inputs": [
        {
          "internalType": "address",
          "name": "newOwner",
          "type": "address"
        }
      ],
      "name": "transferOwnership",
      "outputs": [],
      "stateMutability": "nonpayable",
      "type": "function"
    },
    {
      "inputs": [
        {
          "internalType": "address[]",
          "name": "_recipients",
          "type": "address[]"
        },
        {
          "internalType": "uint256",
          "name": "_amount",
          "type": "uint256"
        }
      ],
      "name": "dropTokens",
      "outputs": [
        {
          "internalType": "bool",
          "name": "",
          "type": "bool"
        }
      ],
      "stateMutability": "nonpayable",
      "type": "function"
    },
    {
      "inputs": [
        {
          "internalType": "address[]",
          "name": "_recipients",
          "type": "address[]"
        },
        {
          "internalType": "uint256[]",
          "name": "_amount",
          "type": "uint256[]"
        }
      ],
      "name": "dropEther",
      "outputs": [
        {
          "internalType": "bool",
          "name": "",
          "type": "bool"
        }
      ],
      "stateMutability": "payable",
      "type": "function",
      "payable": true
    },
    {
      "inputs": [
        {
          "internalType": "address",
          "name": "_tokenAddr",
          "type": "address"
        }
      ],
      "name": "setTokenAddress",
      "outputs": [],
      "stateMutability": "nonpayable",
      "type": "function"
    },
    {
      "inputs": [
        {
          "internalType": "address",
          "name": "beneficiary",
          "type": "address"
        }
      ],
      "name": "withdrawTokens",
      "outputs": [],
      "stateMutability": "nonpayable",
      "type": "function"
    },
    {
      "inputs": [
        {
          "internalType": "address payable",
          "name": "beneficiary",
          "type": "address"
        }
      ],
      "name": "withdrawEther",
      "outputs": [],
      "stateMutability": "nonpayable",
      "type": "function"
    }
  ],
  "bytecode": "0x608060405234801561001057600080fd5b5061002d61002261003260201b60201c565b61003a60201b60201c565b6100fe565b600033905090565b60008060009054906101000a900473ffffffffffffffffffffffffffffffffffffffff169050816000806101000a81548173ffffffffffffffffffffffffffffffffffffffff021916908373ffffffffffffffffffffffffffffffffffffffff1602179055508173ffffffffffffffffffffffffffffffffffffffff168173ffffffffffffffffffffffffffffffffffffffff167f8be0079c531659141344cd1fd0a4f28419497f9722a3daafe3b4186f6b6457e060405160405180910390a35050565b6115048061010d6000396000f3fe6080604052600436106100865760003560e01c8063715018a611610059578063715018a6146101385780638da5cb5b1461014f578063967d7f881461017a578063af933b57146101b7578063f2fde38b146101e057610086565b806326a4e8d21461008b5780633ff67514146100b457806349df728c146100e45780635fbe4d1d1461010d575b600080fd5b34801561009757600080fd5b506100b260048036038101906100ad9190610f4b565b610209565b005b6100ce60048036038101906100c99190610f9d565b6102c9565b6040516100db9190611206565b60405180910390f35b3480156100f057600080fd5b5061010b60048036038101906101069190610f4b565b6105fc565b005b34801561011957600080fd5b506101226107dd565b60405161012f91906111c2565b60405180910390f35b34801561014457600080fd5b5061014d610803565b005b34801561015b57600080fd5b5061016461088b565b60405161017191906111c2565b60405180910390f35b34801561018657600080fd5b506101a1600480360381019061019c9190611009565b6108b4565b6040516101ae9190611206565b60405180910390f35b3480156101c357600080fd5b506101de60048036038101906101d99190610f74565b610ace565b005b3480156101ec57600080fd5b5061020760048036038101906102029190610f4b565b610b94565b005b610211610c8c565b73ffffffffffffffffffffffffffffffffffffffff1661022f61088b565b73ffffffffffffffffffffffffffffffffffffffff1614610285576040517f08c379a000000000000000000000000000000000000000000000000000000000815260040161027c90611261565b60405180910390fd5b80600160006101000a81548173ffffffffffffffffffffffffffffffffffffffff021916908373ffffffffffffffffffffffffffffffffffffffff16021790555050565b60006102d3610c8c565b73ffffffffffffffffffffffffffffffffffffffff166102f161088b565b73ffffffffffffffffffffffffffffffffffffffff1614610347576040517f08c379a000000000000000000000000000000000000000000000000000000000815260040161033e90611261565b60405180910390fd5b6000805b83518110156103bb576103a7848281518110610390577f4e487b7100000000000000000000000000000000000000000000000000000000600052603260045260246000fd5b602002602001015183610c9490919063ffffffff16565b5080806103b3906113cb565b91505061034b565b50348111156103c957600080fd5b82518451146103d757600080fd5b60005b84518110156105f057600073ffffffffffffffffffffffffffffffffffffffff16858281518110610434577f4e487b7100000000000000000000000000000000000000000000000000000000600052603260045260246000fd5b602002602001015173ffffffffffffffffffffffffffffffffffffffff16141561045d57600080fd5b848181518110610496577f4e487b7100000000000000000000000000000000000000000000000000000000600052603260045260246000fd5b602002602001015173ffffffffffffffffffffffffffffffffffffffff166108fc8583815181106104f0577f4e487b7100000000000000000000000000000000000000000000000000000000600052603260045260246000fd5b60200260200101519081150290604051600060405180830381858888f19350505050158015610523573d6000803e3d6000fd5b507f1853ca9dc0208799379313b2b43364e45db022f073c72648fbc206dc0bacbcdc85828151811061057e577f4e487b7100000000000000000000000000000000000000000000000000000000600052603260045260246000fd5b60200260200101518583815181106105bf577f4e487b7100000000000000000000000000000000000000000000000000000000600052603260045260246000fd5b60200260200101516040516105d59291906111dd565b60405180910390a180806105e8906113cb565b9150506103da565b50600191505092915050565b610604610c8c565b73ffffffffffffffffffffffffffffffffffffffff1661062261088b565b73ffffffffffffffffffffffffffffffffffffffff1614610678576040517f08c379a000000000000000000000000000000000000000000000000000000000815260040161066f90611261565b60405180910390fd5b600160009054906101000a900473ffffffffffffffffffffffffffffffffffffffff1673ffffffffffffffffffffffffffffffffffffffff1663a9059cbb82600160009054906101000a900473ffffffffffffffffffffffffffffffffffffffff1673ffffffffffffffffffffffffffffffffffffffff166370a08231306040518263ffffffff1660e01b815260040161071291906111c2565b60206040518083038186803b15801561072a57600080fd5b505afa15801561073e573d6000803e3d6000fd5b505050506040513d601f19601f820116820180604052508101906107629190611086565b6040518363ffffffff1660e01b815260040161077f9291906111dd565b602060405180830381600087803b15801561079957600080fd5b505af11580156107ad573d6000803e3d6000fd5b505050506040513d601f19601f820116820180604052508101906107d1919061105d565b6107da57600080fd5b50565b600160009054906101000a900473ffffffffffffffffffffffffffffffffffffffff1681565b61080b610c8c565b73ffffffffffffffffffffffffffffffffffffffff1661082961088b565b73ffffffffffffffffffffffffffffffffffffffff161461087f576040517f08c379a000000000000000000000000000000000000000000000000000000000815260040161087690611261565b60405180910390fd5b6108896000610cf2565b565b60008060009054906101000a900473ffffffffffffffffffffffffffffffffffffffff16905090565b60006108be610c8c565b73ffffffffffffffffffffffffffffffffffffffff166108dc61088b565b73ffffffffffffffffffffffffffffffffffffffff1614610932576040517f08c379a000000000000000000000000000000000000000000000000000000000815260040161092990611261565b60405180910390fd5b60005b8351811015610ac357600073ffffffffffffffffffffffffffffffffffffffff1684828151811061098f577f4e487b7100000000000000000000000000000000000000000000000000000000600052603260045260246000fd5b602002602001015173ffffffffffffffffffffffffffffffffffffffff1614156109b857600080fd5b600160009054906101000a900473ffffffffffffffffffffffffffffffffffffffff1673ffffffffffffffffffffffffffffffffffffffff1663a9059cbb858381518110610a2f577f4e487b7100000000000000000000000000000000000000000000000000000000600052603260045260246000fd5b6020026020010151856040518363ffffffff1660e01b8152600401610a559291906111dd565b602060405180830381600087803b158015610a6f57600080fd5b505af1158015610a83573d6000803e3d6000fd5b505050506040513d601f19601f82011682018060405250810190610aa7919061105d565b610ab057600080fd5b8080610abb906113cb565b915050610935565b506001905092915050565b610ad6610c8c565b73ffffffffffffffffffffffffffffffffffffffff16610af461088b565b73ffffffffffffffffffffffffffffffffffffffff1614610b4a576040517f08c379a0000000000000000000000000000000000000000000000000000000008152600401610b4190611261565b60405180910390fd5b8073ffffffffffffffffffffffffffffffffffffffff166108fc479081150290604051600060405180830381858888f19350505050158015610b90573d6000803e3d6000fd5b5050565b610b9c610c8c565b73ffffffffffffffffffffffffffffffffffffffff16610bba61088b565b73ffffffffffffffffffffffffffffffffffffffff1614610c10576040517f08c379a0000000000000000000000000000000000000000000000000000000008152600401610c0790611261565b60405180910390fd5b600073ffffffffffffffffffffffffffffffffffffffff168173ffffffffffffffffffffffffffffffffffffffff161415610c80576040517f08c379a0000000000000000000000000000000000000000000000000000000008152600401610c7790611221565b60405180910390fd5b610c8981610cf2565b50565b600033905090565b6000808284610ca3919061131b565b905083811015610ce8576040517f08c379a0000000000000000000000000000000000000000000000000000000008152600401610cdf90611241565b60405180910390fd5b8091505092915050565b60008060009054906101000a900473ffffffffffffffffffffffffffffffffffffffff169050816000806101000a81548173ffffffffffffffffffffffffffffffffffffffff021916908373ffffffffffffffffffffffffffffffffffffffff1602179055508173ffffffffffffffffffffffffffffffffffffffff168173ffffffffffffffffffffffffffffffffffffffff167f8be0079c531659141344cd1fd0a4f28419497f9722a3daafe3b4186f6b6457e060405160405180910390a35050565b6000610dc9610dc4846112b2565b611281565b90508083825260208201905082856020860282011115610de857600080fd5b60005b85811015610e185781610dfe8882610e8e565b845260208401935060208301925050600181019050610deb565b5050509392505050565b6000610e35610e30846112de565b611281565b90508083825260208201905082856020860282011115610e5457600080fd5b60005b85811015610e845781610e6a8882610f21565b845260208401935060208301925050600181019050610e57565b5050509392505050565b600081359050610e9d81611472565b92915050565b600081359050610eb281611489565b92915050565b600082601f830112610ec957600080fd5b8135610ed9848260208601610db6565b91505092915050565b600082601f830112610ef357600080fd5b8135610f03848260208601610e22565b91505092915050565b600081519050610f1b816114a0565b92915050565b600081359050610f30816114b7565b92915050565b600081519050610f45816114b7565b92915050565b600060208284031215610f5d57600080fd5b6000610f6b84828501610e8e565b91505092915050565b600060208284031215610f8657600080fd5b6000610f9484828501610ea3565b91505092915050565b60008060408385031215610fb057600080fd5b600083013567ffffffffffffffff811115610fca57600080fd5b610fd685828601610eb8565b925050602083013567ffffffffffffffff811115610ff357600080fd5b610fff85828601610ee2565b9150509250929050565b6000806040838503121561101c57600080fd5b600083013567ffffffffffffffff81111561103657600080fd5b61104285828601610eb8565b925050602061105385828601610f21565b9150509250929050565b60006020828403121561106f57600080fd5b600061107d84828501610f0c565b91505092915050565b60006020828403121561109857600080fd5b60006110a684828501610f36565b91505092915050565b6110b881611371565b82525050565b6110c781611395565b82525050565b60006110da60268361130a565b91507f4f776e61626c653a206e6577206f776e657220697320746865207a65726f206160008301527f64647265737300000000000000000000000000000000000000000000000000006020830152604082019050919050565b6000611140601b8361130a565b91507f536166654d6174683a206164646974696f6e206f766572666c6f7700000000006000830152602082019050919050565b600061118060208361130a565b91507f4f776e61626c653a2063616c6c6572206973206e6f7420746865206f776e65726000830152602082019050919050565b6111bc816113c1565b82525050565b60006020820190506111d760008301846110af565b92915050565b60006040820190506111f260008301856110af565b6111ff60208301846111b3565b9392505050565b600060208201905061121b60008301846110be565b92915050565b6000602082019050818103600083015261123a816110cd565b9050919050565b6000602082019050818103600083015261125a81611133565b9050919050565b6000602082019050818103600083015261127a81611173565b9050919050565b6000604051905081810181811067ffffffffffffffff821117156112a8576112a7611443565b5b8060405250919050565b600067ffffffffffffffff8211156112cd576112cc611443565b5b602082029050602081019050919050565b600067ffffffffffffffff8211156112f9576112f8611443565b5b602082029050602081019050919050565b600082825260208201905092915050565b6000611326826113c1565b9150611331836113c1565b9250827fffffffffffffffffffffffffffffffffffffffffffffffffffffffffffffffff0382111561136657611365611414565b5b828201905092915050565b600061137c826113a1565b9050919050565b600061138e826113a1565b9050919050565b60008115159050919050565b600073ffffffffffffffffffffffffffffffffffffffff82169050919050565b6000819050919050565b60006113d6826113c1565b91507fffffffffffffffffffffffffffffffffffffffffffffffffffffffffffffffff82141561140957611408611414565b5b600182019050919050565b7f4e487b7100000000000000000000000000000000000000000000000000000000600052601160045260246000fd5b7f4e487b7100000000000000000000000000000000000000000000000000000000600052604160045260246000fd5b61147b81611371565b811461148657600080fd5b50565b61149281611383565b811461149d57600080fd5b50565b6114a981611395565b81146114b457600080fd5b50565b6114c0816113c1565b81146114cb57600080fd5b5056fea2646970667358221220e2329abf9cdcbf28e2cf37ee678047211c6ebcfd71b4a5ad5b5af96f19b7c14d64736f6c63430008000033",
  "immutableReferences": {},
  "source": "// SPDX-License-Identifier: MIT\npragma solidity >=0.7.0;\n\nimport \"@openzeppelin/contracts/access/Ownable.sol\";\nimport '@openzeppelin/contracts/token/ERC20/ERC20.sol';\nimport \"./SafeMath.sol\";\n\nabstract contract Token is ERC20 {}\n\ncontract Airdrop is Ownable {\n  using SafeMath for uint;\n\n  address public tokenAddr;\n\n  event EtherTransfer(address beneficiary, uint amount);\n\n  constructor() {}\n\n  function dropTokens(address[] memory _recipients, uint256 _amount) public onlyOwner returns (bool) {\n    for (uint i = 0; i < _recipients.length; i++) {\n      require(_recipients[i] != address(0));\n      require(Token(tokenAddr).transfer(_recipients[i], _amount));\n    }\n\n    return true;\n  }\n\n  function dropEther(address[] memory _recipients, uint256[] memory _amount) public payable onlyOwner returns (bool) {\n    uint total = 0;\n\n    for(uint j = 0; j < _amount.length; j++) {\n      total.add(_amount[j]);\n    }\n\n    require(total <= msg.value);\n    require(_recipients.length == _amount.length);\n\n    for (uint i = 0; i < _recipients.length; i++) {\n      require(_recipients[i] != address(0));\n\n      payable(_recipients[i]).transfer(_amount[i]);\n      emit EtherTransfer(_recipients[i], _amount[i]);\n    }\n\n    return true;\n  }\n\n  function setTokenAddress(address _tokenAddr) public onlyOwner {\n    tokenAddr = _tokenAddr;\n  }\n\n  function withdrawTokens(address beneficiary) public onlyOwner {\n    require(Token(tokenAddr).transfer(beneficiary, Token(tokenAddr).balanceOf(address(this))));\n  }\n\n  function withdrawEther(address payable beneficiary) public onlyOwner {\n    beneficiary.transfer(address(this).balance);\n  }\n}",
  "sourcePath": "/Users/mac/Sites/REACT/strataLaunch/contracts/Airdrop.sol",
  "compiler": {
    "name": "solc",
    "version": "0.8.0+commit.c7dfd78e.Emscripten.clang"
  },
  "schemaVersion": "3.4.4",
  "updatedAt": "2022-01-17T10:48:07.037Z",
  "networkType": "ethereum",
  "devdoc": {
    "kind": "dev",
    "methods": {
      "owner()": {
        "details": "Returns the address of the current owner."
      },
      "renounceOwnership()": {
        "details": "Leaves the contract without owner. It will not be possible to call `onlyOwner` functions anymore. Can only be called by the current owner. NOTE: Renouncing ownership will leave the contract without an owner, thereby removing any functionality that is only available to the owner."
      },
      "transferOwnership(address)": {
        "details": "Transfers ownership of the contract to a new account (`newOwner`). Can only be called by the current owner."
      }
    },
    "version": 1
  },
  "userdoc": {
    "kind": "user",
    "methods": {},
    "version": 1
  }
}