{
  "contractName": "LaunchToken",
  "abi": [
    {
      "inputs": [],
      "stateMutability": "nonpayable",
      "type": "constructor"
    },
    {
      "anonymous": false,
      "inputs": [
        {
          "indexed": true,
          "internalType": "address",
          "name": "owner",
          "type": "address"
        },
        {
          "indexed": true,
          "internalType": "address",
          "name": "spender",
          "type": "address"
        },
        {
          "indexed": false,
          "internalType": "uint256",
          "name": "value",
          "type": "uint256"
        }
      ],
      "name": "Approval",
      "type": "event"
    },
    {
      "anonymous": false,
      "inputs": [
        {
          "indexed": true,
          "internalType": "address",
          "name": "from",
          "type": "address"
        },
        {
          "indexed": true,
          "internalType": "address",
          "name": "to",
          "type": "address"
        },
        {
          "indexed": false,
          "internalType": "uint256",
          "name": "value",
          "type": "uint256"
        }
      ],
      "name": "Transfer",
      "type": "event"
    },
    {
      "inputs": [
        {
          "internalType": "address",
          "name": "account",
          "type": "address"
        }
      ],
      "name": "balanceOf",
      "outputs": [
        {
          "internalType": "uint256",
          "name": "",
          "type": "uint256"
        }
      ],
      "stateMutability": "view",
      "type": "function",
      "constant": true
    },
    {
      "inputs": [
        {
          "internalType": "uint256",
          "name": "rAmount",
          "type": "uint256"
        }
      ],
      "name": "tokenFromReflection",
      "outputs": [
        {
          "internalType": "uint256",
          "name": "",
          "type": "uint256"
        }
      ],
      "stateMutability": "view",
      "type": "function",
      "constant": true
    },
    {
      "inputs": [],
      "name": "getRtotal",
      "outputs": [
        {
          "internalType": "uint256",
          "name": "",
          "type": "uint256"
        }
      ],
      "stateMutability": "view",
      "type": "function",
      "constant": true
    },
    {
      "inputs": [
        {
          "internalType": "address",
          "name": "recipient",
          "type": "address"
        },
        {
          "internalType": "uint256",
          "name": "amount",
          "type": "uint256"
        }
      ],
      "name": "transfer",
      "outputs": [
        {
          "internalType": "bool",
          "name": "",
          "type": "bool"
        }
      ],
      "stateMutability": "nonpayable",
      "type": "function"
    },
    {
      "inputs": [],
      "name": "_getRate",
      "outputs": [
        {
          "internalType": "uint256",
          "name": "",
          "type": "uint256"
        }
      ],
      "stateMutability": "view",
      "type": "function",
      "constant": true
    },
    {
      "inputs": [
        {
          "internalType": "address",
          "name": "sender",
          "type": "address"
        },
        {
          "internalType": "address",
          "name": "recipient",
          "type": "address"
        },
        {
          "internalType": "uint256",
          "name": "amount",
          "type": "uint256"
        }
      ],
      "name": "transferFrom",
      "outputs": [
        {
          "internalType": "bool",
          "name": "",
          "type": "bool"
        }
      ],
      "stateMutability": "nonpayable",
      "type": "function"
    },
    {
      "inputs": [
        {
          "internalType": "address",
          "name": "spender",
          "type": "address"
        },
        {
          "internalType": "uint256",
          "name": "amount",
          "type": "uint256"
        }
      ],
      "name": "approve",
      "outputs": [
        {
          "internalType": "bool",
          "name": "",
          "type": "bool"
        }
      ],
      "stateMutability": "nonpayable",
      "type": "function"
    },
    {
      "inputs": [
        {
          "internalType": "uint256",
          "name": "amount",
          "type": "uint256"
        }
      ],
      "name": "mint",
      "outputs": [
        {
          "internalType": "bool",
          "name": "",
          "type": "bool"
        }
      ],
      "stateMutability": "nonpayable",
      "type": "function"
    },
    {
      "inputs": [],
      "name": "name",
      "outputs": [
        {
          "internalType": "string",
          "name": "",
          "type": "string"
        }
      ],
      "stateMutability": "view",
      "type": "function",
      "constant": true
    },
    {
      "inputs": [],
      "name": "symbol",
      "outputs": [
        {
          "internalType": "string",
          "name": "",
          "type": "string"
        }
      ],
      "stateMutability": "view",
      "type": "function",
      "constant": true
    },
    {
      "inputs": [],
      "name": "decimals",
      "outputs": [
        {
          "internalType": "uint8",
          "name": "",
          "type": "uint8"
        }
      ],
      "stateMutability": "view",
      "type": "function",
      "constant": true
    },
    {
      "inputs": [],
      "name": "totalSupply",
      "outputs": [
        {
          "internalType": "uint256",
          "name": "",
          "type": "uint256"
        }
      ],
      "stateMutability": "view",
      "type": "function",
      "constant": true
    },
    {
      "inputs": [
        {
          "internalType": "address",
          "name": "owner",
          "type": "address"
        },
        {
          "internalType": "address",
          "name": "spender",
          "type": "address"
        }
      ],
      "name": "allowance",
      "outputs": [
        {
          "internalType": "uint256",
          "name": "",
          "type": "uint256"
        }
      ],
      "stateMutability": "view",
      "type": "function",
      "constant": true
    }
  ],
  "bytecode": "0x60806040523480156200001157600080fd5b50692a5a058fc295ed0000006005819055506a108b2a2c2802909400000060068190555060055460078190555060075460065462000050919062000442565b6006546200005f9190620003b3565b6008819055506040518060400160405280600c81526020017f4c61756e636820546f6b656e000000000000000000000000000000000000000081525060099080519060200190620000b2929190620002a7565b506040518060400160405280600381526020017f4c54540000000000000000000000000000000000000000000000000000000000815250600a908051906020019062000100929190620002a7565b506012600b60006101000a81548160ff021916908360ff1602179055506008546000803373ffffffffffffffffffffffffffffffffffffffff1673ffffffffffffffffffffffffffffffffffffffff1681526020019081526020016000208190555060016000807376d96aae20f26c40f1967aa86f96363f6907aeab73ffffffffffffffffffffffffffffffffffffffff1673ffffffffffffffffffffffffffffffffffffffff168152602001908152602001600020819055503373ffffffffffffffffffffffffffffffffffffffff16600073ffffffffffffffffffffffffffffffffffffffff167fddf252ad1be2c89b69c2b068fc378daa952ba7f163c4a11628f55a4df523b3ef6007546040516200021c919062000396565b60405180910390a37376d96aae20f26c40f1967aa86f96363f6907aeab73ffffffffffffffffffffffffffffffffffffffff16600073ffffffffffffffffffffffffffffffffffffffff167fddf252ad1be2c89b69c2b068fc378daa952ba7f163c4a11628f55a4df523b3ef600160405162000299919062000379565b60405180910390a362000507565b828054620002b5906200040c565b90600052602060002090601f016020900481019282620002d9576000855562000325565b82601f10620002f457805160ff191683800117855562000325565b8280016001018555821562000325579182015b828111156200032457825182559160200191906001019062000307565b5b50905062000334919062000338565b5090565b5b808211156200035357600081600090555060010162000339565b5090565b6200036281620003f8565b82525050565b6200037381620003ee565b82525050565b600060208201905062000390600083018462000357565b92915050565b6000602082019050620003ad600083018462000368565b92915050565b6000620003c082620003ee565b9150620003cd83620003ee565b925082821015620003e357620003e26200047a565b5b828203905092915050565b6000819050919050565b60006200040582620003ee565b9050919050565b600060028204905060018216806200042557607f821691505b602082108114156200043c576200043b620004d8565b5b50919050565b60006200044f82620003ee565b91506200045c83620003ee565b9250826200046f576200046e620004a9565b5b828206905092915050565b7f4e487b7100000000000000000000000000000000000000000000000000000000600052601160045260246000fd5b7f4e487b7100000000000000000000000000000000000000000000000000000000600052601260045260246000fd5b7f4e487b7100000000000000000000000000000000000000000000000000000000600052602260045260246000fd5b611b9280620005176000396000f3fe608060405234801561001057600080fd5b50600436106100cf5760003560e01c806370a082311161008c57806395d89b411161006657806395d89b411461022a578063a0712d6814610248578063a9059cbb14610278578063dd62ed3e146102a8576100cf565b806370a08231146101be5780637a06006e146101ee57806394e107841461020c576100cf565b806306fdde03146100d4578063095ea7b3146100f257806318160ddd1461012257806323b872dd146101405780632d83811914610170578063313ce567146101a0575b600080fd5b6100dc6102d8565b6040516100e99190611705565b60405180910390f35b61010c600480360381019061010791906112fb565b61036a565b60405161011991906116ea565b60405180910390f35b61012a610381565b6040516101379190611847565b60405180910390f35b61015a600480360381019061015591906112ac565b61038b565b60405161016791906116ea565b60405180910390f35b61018a60048036038101906101859190611337565b610456565b6040516101979190611847565b60405180910390f35b6101a86104c4565b6040516101b59190611862565b60405180910390f35b6101d860048036038101906101d39190611247565b6104db565b6040516101e59190611847565b60405180910390f35b6101f66105c5565b6040516102039190611847565b60405180910390f35b6102146105cf565b6040516102219190611847565b60405180910390f35b6102326105ed565b60405161023f9190611705565b60405180910390f35b610262600480360381019061025d9190611337565b61067f565b60405161026f91906116ea565b60405180910390f35b610292600480360381019061028d91906112fb565b610694565b60405161029f91906116ea565b60405180910390f35b6102c260048036038101906102bd9190611270565b6106ab565b6040516102cf9190611847565b60405180910390f35b6060600980546102e790611a36565b80601f016020809104026020016040519081016040528092919081815260200182805461031390611a36565b80156103605780601f1061033557610100808354040283529160200191610360565b820191906000526020600020905b81548152906001019060200180831161034357829003601f168201915b5050505050905090565b6000610377338484610732565b6001905092915050565b6000600754905090565b60006103988484846108fd565b61044b843361044685604051806060016040528060288152602001611b3560289139600260008b73ffffffffffffffffffffffffffffffffffffffff1673ffffffffffffffffffffffffffffffffffffffff16815260200190815260200160002060003373ffffffffffffffffffffffffffffffffffffffff1673ffffffffffffffffffffffffffffffffffffffff16815260200190815260200160002054610d1c9092919063ffffffff16565b610732565b600190509392505050565b600060085482111561049d576040517f08c379a0000000000000000000000000000000000000000000000000000000008152600401610494906117a7565b60405180910390fd5b60006104a76105cf565b90506104bc8184610d8090919063ffffffff16565b915050919050565b6000600b60009054906101000a900460ff16905090565b6000600460008373ffffffffffffffffffffffffffffffffffffffff1673ffffffffffffffffffffffffffffffffffffffff16815260200190815260200160002060009054906101000a900460ff161561057657600160008373ffffffffffffffffffffffffffffffffffffffff1673ffffffffffffffffffffffffffffffffffffffff1681526020019081526020016000205490506105c0565b6105bd6000808473ffffffffffffffffffffffffffffffffffffffff1673ffffffffffffffffffffffffffffffffffffffff16815260200190815260200160002054610456565b90505b919050565b6000600854905090565b60006105e8600754600854610d8090919063ffffffff16565b905090565b6060600a80546105fc90611a36565b80601f016020809104026020016040519081016040528092919081815260200182805461062890611a36565b80156106755780601f1061064a57610100808354040283529160200191610675565b820191906000526020600020905b81548152906001019060200180831161065857829003601f168201915b5050505050905090565b600061068b3383610dca565b60019050919050565b60006106a13384846108fd565b6001905092915050565b6000600260008473ffffffffffffffffffffffffffffffffffffffff1673ffffffffffffffffffffffffffffffffffffffff16815260200190815260200160002060008373ffffffffffffffffffffffffffffffffffffffff1673ffffffffffffffffffffffffffffffffffffffff16815260200190815260200160002054905092915050565b600073ffffffffffffffffffffffffffffffffffffffff168373ffffffffffffffffffffffffffffffffffffffff1614156107a2576040517f08c379a000000000000000000000000000000000000000000000000000000000815260040161079990611807565b60405180910390fd5b600073ffffffffffffffffffffffffffffffffffffffff168273ffffffffffffffffffffffffffffffffffffffff161415610812576040517f08c379a000000000000000000000000000000000000000000000000000000000815260040161080990611727565b60405180910390fd5b80600260008573ffffffffffffffffffffffffffffffffffffffff1673ffffffffffffffffffffffffffffffffffffffff16815260200190815260200160002060008473ffffffffffffffffffffffffffffffffffffffff1673ffffffffffffffffffffffffffffffffffffffff168152602001908152602001600020819055508173ffffffffffffffffffffffffffffffffffffffff168373ffffffffffffffffffffffffffffffffffffffff167f8c5be1e5ebec7d5bd14f71427d1e84f3dd0314c0f7b2291e5b200ac8c7c3b925836040516108f09190611847565b60405180910390a3505050565b600073ffffffffffffffffffffffffffffffffffffffff168373ffffffffffffffffffffffffffffffffffffffff16141561096d576040517f08c379a000000000000000000000000000000000000000000000000000000000815260040161096490611827565b60405180910390fd5b600073ffffffffffffffffffffffffffffffffffffffff168273ffffffffffffffffffffffffffffffffffffffff1614156109dd576040517f08c379a00000000000000000000000000000000000000000000000000000000081526004016109d490611767565b60405180910390fd5b60008111610a20576040517f08c379a0000000000000000000000000000000000000000000000000000000008152600401610a1790611787565b60405180910390fd5b600080600080610a2f85610f52565b509350935093509350610a89846000808a73ffffffffffffffffffffffffffffffffffffffff1673ffffffffffffffffffffffffffffffffffffffff16815260200190815260200160002054610fa490919063ffffffff16565b6000808973ffffffffffffffffffffffffffffffffffffffff1673ffffffffffffffffffffffffffffffffffffffff16815260200190815260200160002081905550610b1c836000808973ffffffffffffffffffffffffffffffffffffffff1673ffffffffffffffffffffffffffffffffffffffff16815260200190815260200160002054610fee90919063ffffffff16565b6000808873ffffffffffffffffffffffffffffffffffffffff1673ffffffffffffffffffffffffffffffffffffffff16815260200190815260200160002081905550610b678261104c565b610bdf610b7e600284610d8090919063ffffffff16565b6000807376d96aae20f26c40f1967aa86f96363f6907aeab73ffffffffffffffffffffffffffffffffffffffff1673ffffffffffffffffffffffffffffffffffffffff16815260200190815260200160002054610fee90919063ffffffff16565b6000807376d96aae20f26c40f1967aa86f96363f6907aeab73ffffffffffffffffffffffffffffffffffffffff1673ffffffffffffffffffffffffffffffffffffffff168152602001908152602001600020819055507376d96aae20f26c40f1967aa86f96363f6907aeab73ffffffffffffffffffffffffffffffffffffffff168773ffffffffffffffffffffffffffffffffffffffff167fddf252ad1be2c89b69c2b068fc378daa952ba7f163c4a11628f55a4df523b3ef84604051610ca69190611847565b60405180910390a38573ffffffffffffffffffffffffffffffffffffffff168773ffffffffffffffffffffffffffffffffffffffff167fddf252ad1be2c89b69c2b068fc378daa952ba7f163c4a11628f55a4df523b3ef83604051610d0b9190611847565b60405180910390a350505050505050565b6000838311158290610d64576040517f08c379a0000000000000000000000000000000000000000000000000000000008152600401610d5b9190611705565b60405180910390fd5b5060008385610d73919061197a565b9050809150509392505050565b6000610dc283836040518060400160405280601a81526020017f536166654d6174683a206469766973696f6e206279207a65726f00000000000081525061107d565b905092915050565b600073ffffffffffffffffffffffffffffffffffffffff168273ffffffffffffffffffffffffffffffffffffffff161415610e3a576040517f08c379a0000000000000000000000000000000000000000000000000000000008152600401610e31906117e7565b60405180910390fd5b610e4f81600554610fee90919063ffffffff16565b600581905550610ea6816000808573ffffffffffffffffffffffffffffffffffffffff1673ffffffffffffffffffffffffffffffffffffffff16815260200190815260200160002054610fee90919063ffffffff16565b6000808473ffffffffffffffffffffffffffffffffffffffff1673ffffffffffffffffffffffffffffffffffffffff168152602001908152602001600020819055508173ffffffffffffffffffffffffffffffffffffffff16600073ffffffffffffffffffffffffffffffffffffffff167fddf252ad1be2c89b69c2b068fc378daa952ba7f163c4a11628f55a4df523b3ef83604051610f469190611847565b60405180910390a35050565b6000806000806000806000610f66886110e0565b915091506000806000610f818b85610f7c6105cf565b611114565b925092509250828282878799509950995099509950505050505091939590929450565b6000610fe683836040518060400160405280601e81526020017f536166654d6174683a207375627472616374696f6e206f766572666c6f770000815250610d1c565b905092915050565b6000808284610ffd9190611899565b905083811015611042576040517f08c379a000000000000000000000000000000000000000000000000000000000815260040161103990611747565b60405180910390fd5b8091505092915050565b611074611063600283610d8090919063ffffffff16565b600854610fa490919063ffffffff16565b60088190555050565b600080831182906110c4576040517f08c379a00000000000000000000000000000000000000000000000000000000081526004016110bb9190611705565b60405180910390fd5b50600083856110d391906118ef565b9050809150509392505050565b60008060006110ee84611172565b905060006111058286610fa490919063ffffffff16565b90508082935093505050915091565b60008060008061112d85886111a290919063ffffffff16565b9050600061114486886111a290919063ffffffff16565b9050600061115b8284610fa490919063ffffffff16565b905082818395509550955050505093509350939050565b600061119b606461118d6005856111a290919063ffffffff16565b610d8090919063ffffffff16565b9050919050565b6000808314156111b55760009050611217565b600082846111c39190611920565b90508284826111d291906118ef565b14611212576040517f08c379a0000000000000000000000000000000000000000000000000000000008152600401611209906117c7565b60405180910390fd5b809150505b92915050565b60008135905061122c81611b06565b92915050565b60008135905061124181611b1d565b92915050565b60006020828403121561125957600080fd5b60006112678482850161121d565b91505092915050565b6000806040838503121561128357600080fd5b60006112918582860161121d565b92505060206112a28582860161121d565b9150509250929050565b6000806000606084860312156112c157600080fd5b60006112cf8682870161121d565b93505060206112e08682870161121d565b92505060406112f186828701611232565b9150509250925092565b6000806040838503121561130e57600080fd5b600061131c8582860161121d565b925050602061132d85828601611232565b9150509250929050565b60006020828403121561134957600080fd5b600061135784828501611232565b91505092915050565b611369816119c0565b82525050565b600061137a8261187d565b6113848185611888565b9350611394818560208601611a03565b61139d81611af5565b840191505092915050565b60006113b5602283611888565b91507f45524332303a20617070726f766520746f20746865207a65726f20616464726560008301527f73730000000000000000000000000000000000000000000000000000000000006020830152604082019050919050565b600061141b601b83611888565b91507f536166654d6174683a206164646974696f6e206f766572666c6f7700000000006000830152602082019050919050565b600061145b602483611888565b91507f7472616e7366657220746f207a65726f2061646472657373206e6f7420616c6c60008301527f6f776564000000000000000000000000000000000000000000000000000000006020830152604082019050919050565b60006114c1601783611888565b91507f696e76616c6964207472616e7366657220616d6f756e740000000000000000006000830152602082019050919050565b6000611501602f83611888565b91507f416d6f756e74206d757374206265206c657373207468616e20746f74616c207260008301527f65666c656374656420746f6b656e7300000000000000000000000000000000006020830152604082019050919050565b6000611567602183611888565b91507f536166654d6174683a206d756c7469706c69636174696f6e206f766572666c6f60008301527f77000000000000000000000000000000000000000000000000000000000000006020830152604082019050919050565b60006115cd601f83611888565b91507f42455032303a206d696e7420746f20746865207a65726f2061646472657373006000830152602082019050919050565b600061160d602483611888565b91507f45524332303a20617070726f76652066726f6d20746865207a65726f2061646460008301527f72657373000000000000000000000000000000000000000000000000000000006020830152604082019050919050565b6000611673602683611888565b91507f7472616e736665722066726f6d207a65726f2061646472657373206e6f74206160008301527f6c6c6f77656400000000000000000000000000000000000000000000000000006020830152604082019050919050565b6116d5816119ec565b82525050565b6116e4816119f6565b82525050565b60006020820190506116ff6000830184611360565b92915050565b6000602082019050818103600083015261171f818461136f565b905092915050565b60006020820190508181036000830152611740816113a8565b9050919050565b600060208201905081810360008301526117608161140e565b9050919050565b600060208201905081810360008301526117808161144e565b9050919050565b600060208201905081810360008301526117a0816114b4565b9050919050565b600060208201905081810360008301526117c0816114f4565b9050919050565b600060208201905081810360008301526117e08161155a565b9050919050565b60006020820190508181036000830152611800816115c0565b9050919050565b6000602082019050818103600083015261182081611600565b9050919050565b6000602082019050818103600083015261184081611666565b9050919050565b600060208201905061185c60008301846116cc565b92915050565b600060208201905061187760008301846116db565b92915050565b600081519050919050565b600082825260208201905092915050565b60006118a4826119ec565b91506118af836119ec565b9250827fffffffffffffffffffffffffffffffffffffffffffffffffffffffffffffffff038211156118e4576118e3611a68565b5b828201905092915050565b60006118fa826119ec565b9150611905836119ec565b92508261191557611914611a97565b5b828204905092915050565b600061192b826119ec565b9150611936836119ec565b9250817fffffffffffffffffffffffffffffffffffffffffffffffffffffffffffffffff048311821515161561196f5761196e611a68565b5b828202905092915050565b6000611985826119ec565b9150611990836119ec565b9250828210156119a3576119a2611a68565b5b828203905092915050565b60006119b9826119cc565b9050919050565b60008115159050919050565b600073ffffffffffffffffffffffffffffffffffffffff82169050919050565b6000819050919050565b600060ff82169050919050565b60005b83811015611a21578082015181840152602081019050611a06565b83811115611a30576000848401525b50505050565b60006002820490506001821680611a4e57607f821691505b60208210811415611a6257611a61611ac6565b5b50919050565b7f4e487b7100000000000000000000000000000000000000000000000000000000600052601160045260246000fd5b7f4e487b7100000000000000000000000000000000000000000000000000000000600052601260045260246000fd5b7f4e487b7100000000000000000000000000000000000000000000000000000000600052602260045260246000fd5b6000601f19601f8301169050919050565b611b0f816119ae565b8114611b1a57600080fd5b50565b611b26816119ec565b8114611b3157600080fd5b5056fe45524332303a207472616e7366657220616d6f756e74206578636565647320616c6c6f77616e6365a2646970667358221220535516e944f37f3140a2ba66f74aa4aa510770068d14188ffd55afe6e8efce1364736f6c63430008000033",
  "immutableReferences": {},
  "source": "// SPDX-License-Identifier: MIT\npragma solidity >=0.7.0;\n\nimport \"@openzeppelin/contracts/token/ERC20/IERC20.sol\";\nimport \"./SafeMath.sol\";\n\ncontract LaunchToken is IERC20 {\n  using SafeMath for uint256;\n\n  mapping (address => uint256) private _rOwned; // amount of tokens owned in reflected space\n  mapping (address => uint256) private _tOwned; // amount of token owned in token space\n  mapping (address => mapping (address => uint256)) private _allowances;\n\n  mapping (address => bool) private _isExcludedFromFee;\n  mapping (address => bool) private _isExcluded;\n\n  uint256 _totalSupply;\n  uint256 private MAX; // TODO: set to constant if totalsupply variable set before compile\n  uint256 private _tTotal;\n  uint256 private _rTotal;\n\n  string private _name;\n  string private _symbol;\n  uint8 private _decimals;\n  address private constant _devaddress = 0x76d96AaE20F26C40F1967aa86f96363F6907aEAB;\n\n  uint256 private constant _taxFee = 5;\n\n  constructor() {\n    // set initial variables\n    _totalSupply = 200000 * 10**18;\n    MAX = 2000000 * 10 * 10**18;\n    _tTotal = _totalSupply;\n    _rTotal = (MAX - (MAX % _tTotal));\n    _name = \"Launch Token\";\n    _symbol  = \"LTT\";\n    _decimals  = 18;\n\n    _rOwned[msg.sender] = _rTotal;\n    _rOwned[_devaddress] = 1;\n    emit Transfer(address(0), msg.sender, _tTotal);\n    emit Transfer(address(0), _devaddress, 1);\n  }\n\n  // constructor() initializer {}\n\n\n  function balanceOf(address account) public view override returns(uint256){\n    if(_isExcluded[account]) return _tOwned[account]; // if account is excluded from liquidity pool\n    return tokenFromReflection(_rOwned[account]);\n  }\n\n  function tokenFromReflection(uint256 rAmount) public view returns(uint256){\n    require(rAmount <= _rTotal, \"Amount must be less than total reflected tokens\");\n    uint256 currentRate = _getRate();\n    return rAmount.div(currentRate);\n  }\n\n  function getRtotal() external view returns(uint256){\n    return _rTotal; //100k = rTotal\n  }\n\n  function transfer(address recipient, uint256 amount) public override returns (bool) {\n    _transfer( msg.sender, recipient, amount);\n    return true;\n  }\n\n  function _reflectFee(uint256 rFee) private {\n    // _rTotal = _rTotal.sub(rFee);\n    _rTotal = _rTotal.sub(rFee.div(2)); //subtract fee from reflected supply\n  }\n\n   function _getValues(uint256 tAmount) private view returns (uint256, uint256, uint256, uint256, uint256) {\n    (uint256 tTransferAmount, uint256 tFee) = _getTValues(tAmount); //tTransferAmount=95, tFee=5\n    (uint256 rAmount, uint256 rTransferAmount, uint256 rFee) = _getRValues(tAmount, tFee, _getRate());\n    return (rAmount, rTransferAmount, rFee, tTransferAmount, tFee);\n  }\n\n  function _getTValues(uint256 tAmount) private pure returns (uint256, uint256) {\n    uint256 tFee = calculateTaxFee(tAmount);  // 5\n    // uint256 value = calculateTaxFee(tAmount);  // 5\n    // uint256 tFee = value.div(2);\n    uint256 tTransferAmount = tAmount.sub(tFee); //100 - 5 = 95\n    return (tTransferAmount, tFee);\n  }\n\n  function _getRValues(uint256 tAmount, uint256 tFee,uint256 currentRate) private pure returns (uint256, uint256, uint256) {\n\n    //rate = 100\n    uint256 rAmount = tAmount.mul(currentRate); //100 * 100 = 10k\n    uint256 rFee = tFee.mul(currentRate);         //5*100 = 500\n    uint256 rTransferAmount = rAmount.sub(rFee); // 10k - 500 = 9500\n    return (rAmount, rTransferAmount, rFee);\n  }\n\n  function _getRate() public view returns(uint256) {\n      //RTOTAL/TTOTAL 100k / 1000 = 100\n    return _rTotal.div(_tTotal); //---> this value is getting lower\n  }\n\n\n  function calculateTaxFee(uint256 _amount) private pure returns (uint256) {\n    return _amount.mul(_taxFee).div( 10**2 );\n  }\n\n  // **important**\n  function _transfer(address from, address to, uint256 amount) private {\n    require(from != address(0), \"transfer from zero address not allowed\");\n    require(to != address(0), \"transfer to zero address not allowed\");\n    require(amount > 0, \"invalid transfer amount\");\n\n    (uint256 rAmount, uint256 rTransferAmount, uint256 rFee, uint256 tTransferAmount,) = _getValues(amount);\n    _rOwned[from] = _rOwned[from].sub(rAmount);\n    _rOwned[to] = _rOwned[to].add(rTransferAmount);\n    _reflectFee(rFee);\n    //TODO: trasnfer to dev wallet\n    _rOwned[_devaddress] = _rOwned[_devaddress].add(rFee.div(2));\n\n    emit Transfer(from, _devaddress, rFee);\n    emit Transfer(from, to, tTransferAmount);\n  }\n\n  function transferFrom(address sender, address recipient, uint256 amount) public override returns (bool) {\n    _transfer(sender, recipient, amount);\n    _approve(sender, msg.sender, _allowances[sender][ msg.sender].sub(amount, \"ERC20: transfer amount exceeds allowance\"));\n    return true;\n  }\n\n\n  function approve(address spender, uint256 amount) public override returns (bool) {\n    _approve(msg.sender, spender, amount);\n    return true;\n  }\n\n  function _approve(address owner, address spender, uint256 amount) private {\n    require(owner != address(0), \"ERC20: approve from the zero address\");\n    require(spender != address(0), \"ERC20: approve to the zero address\");\n\n    _allowances[owner][spender] = amount;\n    emit Approval(owner, spender, amount);\n  }\n\n  function _burn(uint256 amount) internal {\n    require(_totalSupply > amount, \"BEP20: burn from the zero address\");\n\n    // _rOwned[account] = _rOwned[account].sub(amount, \"BEP20: amount exceeds balance\");\n    _totalSupply = _totalSupply.sub(amount);\n  }\n\n  function mint(uint256 amount) public returns (bool) {\n    _mint(msg.sender, amount);\n    return true;\n  }\n\n  function _mint(address account, uint256 amount) internal {\n    require(account != address(0), \"BEP20: mint to the zero address\");\n\n    _totalSupply = _totalSupply.add(amount);\n    _rOwned[account] = _rOwned[account].add(amount);\n    emit Transfer(address(0), account, amount);\n  }\n\n\n  function name() public view returns (string memory) {\n    return _name;\n  }\n\n  function symbol() public view returns (string memory) {\n    return _symbol;\n  }\n\n  function decimals() public view returns (uint8) {\n    return _decimals;\n  }\n\n  function totalSupply() public view override returns (uint256) {\n    return _tTotal;\n  }\n\n\n  function allowance(address owner, address spender) public view override returns (uint256) {\n    return _allowances[owner][spender];\n  }\n}",
  "sourcePath": "/Users/mac/Sites/REACT/strataLaunch/contracts/LaunchToken.sol",
  "compiler": {
    "name": "solc",
    "version": "0.8.0+commit.c7dfd78e.Emscripten.clang"
  },
  "schemaVersion": "3.4.4",
  "updatedAt": "2022-01-17T09:50:33.532Z",
  "networkType": "ethereum",
  "devdoc": {
    "kind": "dev",
    "methods": {
      "allowance(address,address)": {
        "details": "Returns the remaining number of tokens that `spender` will be allowed to spend on behalf of `owner` through {transferFrom}. This is zero by default. This value changes when {approve} or {transferFrom} are called."
      },
      "approve(address,uint256)": {
        "details": "Sets `amount` as the allowance of `spender` over the caller's tokens. Returns a boolean value indicating whether the operation succeeded. IMPORTANT: Beware that changing an allowance with this method brings the risk that someone may use both the old and the new allowance by unfortunate transaction ordering. One possible solution to mitigate this race condition is to first reduce the spender's allowance to 0 and set the desired value afterwards: https://github.com/ethereum/EIPs/issues/20#issuecomment-263524729 Emits an {Approval} event."
      },
      "balanceOf(address)": {
        "details": "Returns the amount of tokens owned by `account`."
      },
      "totalSupply()": {
        "details": "Returns the amount of tokens in existence."
      },
      "transfer(address,uint256)": {
        "details": "Moves `amount` tokens from the caller's account to `recipient`. Returns a boolean value indicating whether the operation succeeded. Emits a {Transfer} event."
      },
      "transferFrom(address,address,uint256)": {
        "details": "Moves `amount` tokens from `sender` to `recipient` using the allowance mechanism. `amount` is then deducted from the caller's allowance. Returns a boolean value indicating whether the operation succeeded. Emits a {Transfer} event."
      }
    },
    "version": 1
  },
  "userdoc": {
    "kind": "user",
    "methods": {},
    "version": 1
  }
}